:020000040000FA
:100000000C9468010C9490010C9490010C94900154
:100010000C9490010C9490010C9490010C9490011C
:100020000C9490010C9490010C9490010C9490010C
:100030000C9490010C9490010C9490010C949001FC
:100040000C9466210C9490010C94D6210C94B02150
:100050000C9490010C9490010C9490010C949001DC
:100060000C9408220C94900100407A10F35A00A0DE
:10007000724E18090010A5D4E80000E87648170071
:1000800000E40B54020000CA9A3B000000E1F505B1
:10009000000080969800000040420F000000A086FB
:1000A00001000000102700000000E803000000002D
:1000B0006400000000000A000000000001000000D1
:1000C00000002C76D888DC674F0823DFC1DFAE59EB
:1000D000E1B1B796E5E3E453C63AE651997696E87E
:1000E000E6C28426EB898C9B62ED407C6FFCEFBC02
:1000F0009C9F40F2BAA56FA5F490055A2AF75C932D
:100100006B6CF9676DC11BFCE0E40D47FEF520E662
:10011000B500D0ED902E0300943577050080841E45
:10012000080000204E0A000000C80C333333330FA0
:10013000986E12831141EF8D2114893BE65516CF3D
:10014000FEE6DB18D1844B381BF77C1D901DA4BB49
:10015000E424203284725E228100C9F124ECA1E5FE
:100160003D27626C6E6B696E66006D637500302EA4
:10017000302E300066772D7479706500544D504CE8
:10018000355549445F7962416F006275696C64005E
:1001900041756720313720323032342031323A34E1
:1001A000373A353100626C796E6B00312E332E3266
:1001B00000682D6265617400343500627566662DD5
:1001C000696E003235360064657600417264756987
:1001D0006E6F20556E6F006370750041546D6567DA
:1001E000613332385000636F6E0057353130300064
:1001F000000000000000240027002A00000000008A
:10020000250028002B000000000023002600290004
:1002100004040404040404040202020202020303AC
:1002200003030303010204081020408001020408B4
:100230001020010204081020000000080002010044
:100240000003040700000000000000009301930178
:1002500093019301930193019301930193019301FE
:1002600093019301930193019301930193019301EE
:1002700093019301930193019301930193019301DE
:100280009301930193019301930193017F0A9201DA
:100290005B0A3B0A150A92019201920192019201B6
:1002A00092019201920192019201920192019201B6
:1002B00092019201920192019201920192019201A6
:1002C000920192019201920192019201B623232D93
:1002D00011241FBECFEFD8E0DEBFCDBF12E0A0E0FB
:1002E000B1E0E0E5FBE602C005900D92AC37B10746
:1002F000D9F725E0ACE7B2E001C01D92A13CB207FE
:10030000E1F711E0C7E6D1E004C02197FE010E94A9
:100310009C34C636D107C9F70E9456250C949B35EC
:100320000C940000089508958CBD9DBD089520E3B0
:10033000FC0120833296862F82958F706F706A3011
:1003400030F4605D6293682F8111F5CF0895695C88
:10035000F9CFFC01818D928D0895833081F028F4CE
:10036000813099F08230A9F008958730A9F0883063
:10037000C9F08430B1F4809180008F7D03C08091FA
:1003800080008F7780938000089584B58F7784BD37
:10039000089584B58F7DFBCF8091B0008F778093D7
:1003A000B00008958091B0008F7DF9CF1F93CF9357
:1003B000DF93282F30E0F901E85CFD4F8491F901CB
:1003C000EC5DFD4FD491F901E05FFD4FC491CC236A
:1003D000A9F0162F81110E94AD01EC2FF0E0EE0F75
:1003E000FF1FE450FE4FA591B4918FB7F894EC91A4
:1003F000111108C0D095DE23DC938FBFDF91CF9120
:100400001F910895DE2BF8CFCF93DF9390E0FC018E
:10041000EC5DFD4F2491805F9D4FFC01849188230A
:10042000C9F090E0880F991FFC01EE50FE4FA59196
:10043000B491FC01E450FE4FC591D49161110DC0FF
:100440009FB7F8948C91209582238C9388812823E0
:1004500028839FBFDF91CF910895623051F49FB7F9
:10046000F8943C91822F809583238C93E8812E2BE6
:10047000EFCF8FB7F894EC912E2B2C938FBFEACF50
:100480001F93CF93DF93182FEB0161E00E940402CA
:10049000209739F460E0812FDF91CF911F910C9468
:1004A000D601CF3FD10511F461E0F5CFE12FF0E0A7
:1004B000E85CFD4FE491E33031F140F4E130B1F01C
:1004C000E230E1F0C038D1057CF7E4CFE73029F124
:1004D000E83059F1E430B1F7809180008062809378
:1004E0008000D0938B00C0938A0004C084B58068DC
:1004F00084BDC7BDDF91CF911F91089584B58062FF
:1005000084BDC8BDF7CF8091800080688093800053
:10051000D0938900C0938800EDCF8091B0008068AF
:100520008093B000C093B300E5CF8091B0008062AB
:100530008093B000C093B400DDCF8E3008F08E50B1
:100540008770806480937C0080917A0080648093BF
:100550007A0080917A0086FDFCCF8091780090919E
:10056000790008953FB7F8948091AE039091AF035E
:10057000A091B003B091B10326B5A89B05C02F3F51
:1005800019F00196A11DB11D3FBFBA2FA92F982FB9
:100590008827BC01CD01620F711D811D911D42E0B4
:1005A000660F771F881F991F4A95D1F708958F927C
:1005B0009F92AF92BF92CF92DF92EF92FF926B0128
:1005C0007C010E94B2024B015C01C114D104E10420
:1005D000F104B9F00E94B202681979098A099B09ED
:1005E000683E73408105910580F321E0C21AD1086D
:1005F000E108F10888EE880E83E0981EA11CB11C6A
:10060000E4CFFF90EF90DF90CF90BF90AF909F909E
:100610008F9008952FB7F8946091AA037091AB035F
:100620008091AC039091AD032FBF08950895089574
:1006300008954F925F926F927F92AF92BF92CF9246
:10064000DF92EF92FF920F931F93CF93DF93EC0112
:100650006B017B01E40EF51E8B015801AC18BD083F
:100660000E151F0511F10E940A03688779878A8792
:100670009B87E881F9810284F385E02DCE010995FD
:1006800097FF23C00E940A03488459846A847B84AC
:1006900064197509860997094C805D806E807F809A
:1006A000641575058605970520F3C501DF91CF9187
:1006B0001F910F91FF90EF90DF90CF90BF90AF9080
:1006C0007F906F905F904F900895F80181938F0114
:1006D000C4CFAF92BF92CF92DF92EF92FF920F936F
:1006E0001F93CF93DF936C017B018B01040F151FC8
:1006F000EB015E01AE18BF08C017D10759F0699130
:10070000D601ED91FC910190F081E02DC601099593
:10071000892B79F7C501DF91CF911F910F91FF9040
:10072000EF90DF90CF90BF90AF900895FC01538D74
:10073000448D252F30E0842F90E0821B930B5417BB
:1007400010F0CF96089501970895FC01918D828D48
:10075000981761F0A28DAE0FBF2FB11D5D968C91E1
:10076000928D9F5F9F73928F90E008958FEF9FEF20
:100770000895FC01918D828D981731F0828DE80FDC
:10078000F11D858D90E008958FEF9FEF0895FC0196
:10079000918D228D892F90E0805C9F4F821B910963
:1007A0008F73992708958FEC93E00E94C70321E08F
:1007B000892B09F420E0822F089580E090E0892BB6
:1007C00029F00E94D30381110C9400000895FC01CC
:1007D000A48DA80FB92FB11DA35ABF4F2C91848DA2
:1007E00090E001968F739927848FA689B7892C93FF
:1007F000A089B1898C91837080648C93938D848D52
:10080000981306C00288F389E02D80818F7D808354
:100810000895EF92FF920F931F93CF93DF93EC0114
:1008200081E0888F9B8D8C8D98131AC0E889F98997
:10083000808185FF15C09FB7F894EE89FF8960839A
:10084000E889F98980818370806480839FBF81E01B
:1008500090E0DF91CF911F910F91FF90EF9008955D
:10086000F62E0B8D10E00F5F1F4F0F731127E02E38
:100870008C8D8E110CC00FB607FCFACFE889F98970
:10088000808185FFF5CFCE010E94E703F1CFEB8D8C
:10089000EC0FFD2FF11DE35AFF4FF0829FB7F89444
:1008A0000B8FEA89FB8980818062CFCF682F8FEC24
:1008B00093E00C940904CF93DF93EC01888D882397
:1008C000B9F0AA89BB89E889F9898C9185FD03C0B3
:1008D000808186FD0DC00FB607FCF7CF8C9185FF98
:1008E000F2CF808185FFEDCFCE010E94E703E9CFF3
:1008F000DF91CF9108952091BD02260F3327331F3A
:1009000021323105ECF420910603FC0190E080E0F7
:10091000243069F082E00895A091BD022191AC01DC
:1009200043565D4FA40FB52FB11D2C93019686172A
:1009300098F38091BD02680F6093BD0280E0089536
:1009400081E008951092060381E0809305031092E0
:10095000E00261E082E10E94D60161E083E10E9451
:10096000D601E9EBF0E080818E7F808380818D7FEE
:10097000808388E48093B80085E48093BC00089568
:10098000CF93DF9391E090939C028823B9F0C091BC
:10099000B800D091BA008091BC008A7B8093BC00E3
:1009A00060E082E10E94D60160E083E10E94D6010E
:1009B0000E94A204D093BA00C093B800DF91CF91F7
:1009C0000895E091350380913403E81730F4F0E0A6
:1009D000E458FD4F808190E008958FEF9FEF0895D8
:1009E00090913503809134032FEF3FEF981748F42F
:1009F000E92FF0E0E458FD4F208130E09F5F9093B5
:100A00003503C90108958091340390913503891B02
:100A1000990B0895CF92DF92EF92FF920F931F935D
:100A2000CF93DF937C01CB018A0120910C03222319
:100A300089F0EB016B01C40ED51ECC15DD0569F004
:100A40006991D701ED91FC910190F081E02DC701F2
:100A50000995F3CF642F0E947B04C801DF91CF91E9
:100A60001F910F91FF90EF90DF90CF900895CF935B
:100A7000DF931F92CDB7DEB7698320910C03222349
:100A8000F9F020913203203258F021E030E0FC01EF
:100A90003383228390E080E00F90DF91CF9108951F
:100AA00080913303E82FF0E0E35FFC4F998190835E
:100AB0008F5F809333038093320381E090E0ECCF2B
:100AC00061E0CE0101960E947B04F7CFCF92DF92C6
:100AD000EF92FF920F931F93CF93DF93FC01C4819A
:100AE00021E020930C03C0932D0310923303109246
:100AF00032038385682B8CE694E00E943705D09101
:100B00003203D13208F092C00E94B2026B017C0124
:100B100080910603811165C082E08093060381E025
:100B2000809305038FEF8093040310920303D09307
:100B30000203ADE0B3E0E2EEF2E080E0D81385C05E
:100B40001092E1028091E102CC0FC82BC093E10228
:100B50008091E002813009F07CC01092E0020E9496
:100B6000B2026B017C018091E1028093BB00809115
:100B7000080390910903A0910A03B0910B03892BFC
:100B80008A2B8B2B99F00E94B202009108031091DE
:100B9000090320910A0330910B036C197D098E091A
:100BA0009F090617170728073907E0F18091BC0055
:100BB00083FDD9CF85EC8093BC000E94B2026B010B
:100BC0007C0180910603823009F445C080910403C2
:100BD0008F3F61F180910403803241F180910403E1
:100BE00025C08091080390910903A0910A03B09158
:100BF0000B03892B8A2B8B2B09F48ACF0E94B2021C
:100C0000009108031091090320910A0330910B030E
:100C10006C197D098E099F090617170728073907E0
:100C200008F076CF809107030E94C004109233032E
:100C30001092320310920C03DF91CF911F910F910C
:100C4000FF90EF90DF90CF9008959D9191938F5FEB
:100C500075CF85EEB0CF8091080390910903A091E4
:100C60000A03B0910B03892B8A2B8B2B09F4A9CF94
:100C70000E94B202009108031091090320910A0317
:100C800030910B036C197D098E099F090617170710
:100C90002807390708F095CFC5CFFC0120812EBD6C
:100CA0009B012150310941F051810DB407FEFDCF68
:100CB0004EB55EBD4193F5CF61507109860F971F08
:100CC0000DB407FEFDCF2EB5FC0120830895E09101
:100CD0003703F0913803808190913603892B80830C
:100CE0000895E0913703F0913803908180913603A5
:100CF00080958923808308958EBD00000DB407FE82
:100D0000FDCF8EB50895AF92BF92CF92DF92EF9252
:100D1000FF920F931F93CF93DF93CDB7DEB7289742
:100D20000FB6F894DEBF0FBECDBF8C017B016A0108
:100D30008091CE038333E1F45801A40EB51EA016B2
:100D4000B10609F46FC00E94710680EF0E947C0614
:100D5000812F0E947C06802F0E947C060F5F1F4F10
:100D6000F70181917F010E947C060E946706E7CF10
:100D70005B01A40EB51E8433C1F40E947106198371
:100D80000A838D2D80688B83CC8264E070E0CE0175
:100D900001960E944D06AE14BF0409F441C0F7014C
:100DA00081917F010E947C06F6CF0E9471060F3F61
:100DB000110509F028F419820A8384E08B830CC0A2
:100DC00017FD17C019820A8333E0169507953A95E7
:100DD000E1F7007E0C600B8386E0C816D104A0F515
:100DE000F701DE011496EA15FB0599F081918D93C8
:100DF000FACFC80126E0969587952A95E1F7807E7F
:100E000019830A830115104C10F48461D7CF8C61CB
:100E1000D5CFB6016D5F7F4FCE0101960E944D0682
:100E20000E946706C60128960FB6F894DEBF0FBE73
:100E3000CDBFDF91CF911F910F91FF90EF90DF9089
:100E4000CF90BF90AF90089563E070E0CE0101961F
:100E50000E944D06F70181917F010E947C06AE142D
:100E6000BF04C1F7DDCFCF93DF931F92CDB7DEB7BD
:100E7000898341E050E0BE016F5F7F4F90E080E0EA
:100E80000E9483060F90DF91CF91089590E020910A
:100E9000CE03233339F40C96982F990F990F990F9D
:100EA00080E008954896F8CFDA01E0913A03F0E047
:100EB000FE2FEE27E60FF71F90E0982F8827A90155
:100EC000BD018E0F9F1F0C948306CF93DF9300D03C
:100ED000CDB7DEB779836A8322E030E0AE014F5FA1
:100EE0005F4F60E170E00E9454070F900F90DF9118
:100EF000CF910895CF93DF9300D0CDB7DEB779833C
:100F00006A8322E030E0AE014F5F5F4F64E070E043
:100F10000E9454070F900F90DF91CF910895CF93C7
:100F2000DF931F92CDB7DEB720913A0330E0322F26
:100F30002227260F371F90E0982F8827498341E00A
:100F400050E0BE016F5F7F4F820F931F0E948306A8
:100F50000F90DF91CF910895CF93DF931F92CDB77C
:100F6000DEB76983DC01ED91FC910280F381E02D15
:100F700041E050E0BE016F5F7F4F09950F90DF9118
:100F8000CF910895FC019485FB018485981303C0DB
:100F900081E0943008F080E00895CF93DF931F92B2
:100FA000CDB7DEB76983DC01ED91FC910280F3815E
:100FB000E02D41E050E0BE016F5F7F4F09950F903B
:100FC000DF91CF9108950895FF920F931F93CF93D0
:100FD000DF93EB01FC01178A168A2A81211109C0CF
:100FE0002B81211106C02C81211103C02D812223C8
:100FF00001F141155105E9F08A01FC01F08C80E511
:1010000091E00E949401AE014E5F5F4F24E030E01A
:101010006CE070E08F2D0E945407B8018F2D0E9464
:10102000650781E090E0DF91CF911F910F91FF90D4
:10103000089580E0F7CFFC01848595850895FC0133
:101040008489958908952AEA31E0FC01318320835F
:10105000FB014089518962897389FC014283538372
:10106000648375830895DC01ED91FC91048CF58D0A
:10107000E02D099490E080E008958EE00E949D02AA
:10108000BC01990F880B990B0E94EC3120E030E0F5
:1010900040EA50E40E944B3220E030E040E85AE35E
:1010A0000E944B322AE037ED43E25CE30E94A33317
:1010B000089590E080E00E94560490E080E00C9457
:1010C000560490E080E00E94560481E090E00C9489
:1010D0005604EF92FF920F931F93CF93DF9300D0AC
:1010E00000D000D0CDB7DEB7DC01AB0118966D9112
:1010F0007C9119978D919C911197FC0120813181F0
:1011000061157105B9F0D9015096ED91FC910995E1
:1011100021E0019709F020E0822F26960FB6F8947F
:10112000DEBF0FBECDBFDF91CF911F910F91FF901A
:10113000EF900895F901E684F7842AEA31E03A83D2
:10114000298314960D911D912D913C9117970B8336
:101150001C832D833E83BE016F5F7F4FF701D7CF86
:10116000FC019485992369F080819181DC01ED91E6
:10117000FC910688F789E02D099591E0811101C065
:1011800090E0892F0895DC011C961C921C978D918C
:101190009C91009739F0DC01ED91FC910488F58970
:1011A000E02D09940895FC01768765870895DC0198
:1011B000ED91FC9102A0F3A1E02D099591E0892722
:1011C0000895862F089581E08627089521E0FC0187
:1011D0008485843008F020E0822F089508950F93CD
:1011E0001F93CF938C01C62F0E9466056C2F6460FD
:1011F000C8010E9466056C2F6B7FC8010E946605BE
:1012000083EC90E00197F1F7CF911F910F91089532
:101210000F931F93CF93DF938C01D62FC42F607F42
:10122000642B0E94EF0880E1D89FB00111246C2B41
:10123000C801DF91CF911F910F910C94EF08CF93CC
:10124000DF93CDB7DEB728970FB6F894DEBF0FBE99
:10125000CDBF98E0ECE0F1E0DE01119601900D9237
:101260009A95E1F79091BC04961708F46FEF262F3A
:1012700030E0220F331F41E050E04C0F5D1F240F80
:10128000351FF9016081680F606840E084EB94E0ED
:1012900028960FB6F894DEBF0FBECDBFDF91CF9179
:1012A0000C94080940E061E084EB94E00E94080996
:1012B0008BE39FE10197F1F7089541E00E9408094F
:1012C00081E090E008958F929F92AF92BF92EF924B
:1012D000FF920F931F93CF93DF93CDB7DEB7A19704
:1012E0000FB6F894DEBF0FBECDBF7C01FA01CB0173
:1012F00019A2223008F42AE08E010F5D1F4F822EC2
:10130000912CB12CA12CBF01A50194010E94723334
:10131000F901CA016A3074F5605DD8016E938D01E0
:10132000232B242B252B79F790E080E0109789F070
:10133000FD0101900020E9F73197AF014A1B5B0BDB
:10134000D701ED91FC910280F381E02DB801C70136
:101350000995A1960FB6F894DEBF0FBECDBFDF9101
:10136000CF911F910F91FF90EF90BF90AF909F9002
:101370008F900895695CD1CF8F929F92AF92BF9268
:10138000CF92DF92EF92FF920F931F93CF93DF9351
:101390007C01EB016C0182E0C80ED11C4701E5E045
:1013A0008E0E911C10E000E0F60141916F0150E0BB
:1013B00070E060E02AE0CE010E9463095C01E881F0
:1013C000F9810190F081E02D6EE2CE0109958A0D40
:1013D0009B1D080F191FC814D90431F7F701458167
:1013E00050E070E060E02AE0CE010E946309800FC7
:1013F000911FDF91CF911F910F91FF90EF90DF90A0
:10140000CF90BF90AF909F908F900895FC01019076
:101410000020E9F73197AF01481B590BBC0184EB61
:1014200094E00C9469030C94E62DFB01808191817A
:101430000E94132F892B81F081E090E00E945604D6
:1014400081E090E00E94560461E088E00E941F095C
:101450008CEA91E00C94060A81E090E00E94560428
:1014600090E080E00E94560461E087E00E941F093E
:1014700086EB91E0EFCFFB01808191810E94132FD9
:1014800021E0009709F420E02093A603892B51F076
:101490000E94610861E088E00E941F0980EC91E0F1
:1014A0000C94060A0E94590861E087E00E941F0917
:1014B0008AEC91E0F5CFFB01808191810E94132F8E
:1014C00021E0009709F420E02093A503892B61F027
:1014D00061E085E00E94D60160E088E00E941F097B
:1014E00084ED91E00C94060A60E085E00E94D6014C
:1014F00060E088E00E941F098CED91E0F3CFFB01D2
:10150000808191810E94132F892B61F061E084E03A
:101510000E94D60160E088E00E941F0984EE91E0FD
:101520000C94060A60E084E00E94D60160E088E046
:101530000E941F098CEE91E0F3CFAF92BF92CF9241
:10154000DF92EF92FF920F931F93CF93DF9300D020
:1015500000D0CDB7DEB78C016B017A018091CE034C
:101560008333E9F45B016801C40ED51EC016D106B1
:10157000A9F10E9471068FE00E947C06812F0E94D3
:101580007C06802F0E947C060F5F1F4F80E00E9428
:101590007C06F50181935F010E946706E7CF8433E3
:1015A00069F50E94710619830A838F2D8F778B83CB
:1015B000EC8264E070E0CE0101960E944D06A70126
:1015C00070E060E0C6010E947535E114F10421F07D
:1015D000B701C6010E944D060E946706C7010F9021
:1015E0000F900F900F90DF91CF911F910F91FF906F
:1015F000EF90DF90CF90BF90AF9008950E9471065A
:101600000F3F110509F030F419820A831B8263E051
:1016100070E0D1CF17FD0BC019820A8333E0169515
:1016200007953A95E1F7007E08600B83F0CFC8017B
:1016300026E0969587952A95E1F7807E19830A839F
:101640000115104C18F480618B83E1CF8861FCCFC9
:10165000CF93DF931F92CDB7DEB720913A0330E0EE
:10166000322F2227260F371F90E0982F882741E03E
:1016700050E0BE016F5F7F4F820F931F0E949D0A53
:1016800089810F90DF91CF910895CF93C82F462F76
:1016900061E070E00E948F0761E070E08C2F0E9493
:1016A000280B8111F9CFCF910895CF93C82F80E5F2
:1016B00091E00E94940168E070E08C2FCF910C942F
:1016C000450BCF93C82F80E591E00E94940160E123
:1016D00070E08C2FCF910C94450BCF93DF93EC01EE
:1016E000888D843020F40E94610B84E0888FDF9124
:1016F000CF910895CF93C82F80E591E00E94940187
:1017000063E070E08C2FCF910C94280BCF93DF9384
:10171000EC018C858430D0F40E947A0B843189F0FE
:10172000882379F0883169F021E08C3159F4E8811F
:10173000F9810084F185E02DCE01099521E0892B06
:1017400009F420E0822FDF91CF91089580E0FBCF54
:10175000CF92DF92EF92FF92CF93DF93EC018C85D3
:10176000843068F40E94550B0E940A036B017C01CF
:101770008C850E947A0B811109C084E08C87DF91EF
:10178000CF91FF90EF90DF90CF90089561E070E0EF
:1017900080E090E00E94D7020E940A03AB01BC01E6
:1017A0004C195D096E097F098D859E85B0E0A0E02A
:1017B000481759076A077B07D8F28C850E94610B8E
:1017C000DCCFCF93FC01C08D80E591E00E949401B5
:1017D00060E270E08C2F0E94450B62E070E08C2F7D
:1017E0000E94280B84FD16C062E070E08C2F0E94DE
:1017F000280B83FF0AC048E162E070E08C2F0E9452
:101800008F0780E090E0CF91089580E591E00E94FD
:101810009401E3CF40E162E070E08C2F0E948F07DB
:1018200081E0F0CFCF93DF931F92CDB7DEB741E0D9
:1018300050E0BE016F5F7F4F90E080E00E949D0A04
:1018400089810F90DF91CF910895CF93DF93C4E109
:10185000D0E00E94120C882361F061E070E080E02B
:1018600090E00E94D7022197A1F780E0DF91CF910D
:10187000089581E0FBCF1F93CF93DF931F92CDB7E5
:10188000DEB7182F80E591E00E949401812F0E941D
:10189000460727E0129FF0011124EE54FC4F2281ED
:1018A0003381377041E050E0BE016F5F7F4F820FA0
:1018B000931F0E949D0A89810F90DF91CF911F9104
:1018C0000895FC01808D843040F4218D328D232BCE
:1018D00021F00E943B0C90E008958FEF9FEF089558
:1018E000CF93DF93FC012485243028F08FEF9FEF06
:1018F000DF91CF910895EC010190F081E02D0084FB
:10190000F185E02D0995892B89F38C850E943B0C8C
:1019100090E0EECFDA01E0913A03F0E0FE2FEE27FF
:10192000E60FF71F90E0982F8827A901BD018E0FC1
:101930009F1F0C949D0A8F929F92AF92BF92CF925D
:10194000DF92EF92FF921F93CF93DF93CDB7DEB775
:101950002C970FB6F894DEBF0FBECDBF2091CE03FB
:1019600014E0222339F16B017C0180E591E00E94B3
:1019700094015E0127E0A20EB11C450110E063E076
:1019800070E0812F0E94280BF40181934F0188237E
:1019900049F11F5F143099F710E0F50181915F0163
:1019A0008D31D9F08831C9F08A518230B0F01F5F93
:1019B000143099F7812F2C960FB6F894DEBF0FBE26
:1019C000CDBFDF91CF911F91FF90EF90DF90CF902F
:1019D000BF90AF909F908F90089560E170E0812F4D
:1019E0000E94450BA12EB12C83EE93E00197F1F7F5
:1019F00042E870E060E0812F0E948F074FEF62E0C5
:101A000070E0812F0E948F07B601C114D10491F4B8
:101A1000809100019091010101968115F0EC9F07E2
:101A200008F45CC090930101809300016091000173
:101A300070910101812F0E947A0786E0E4E1F1E0D4
:101A4000DE01119601900D928A95E1F7F7018381ED
:101A50008F778C8384818D8385818E83A7014E5FF0
:101A60005F4F24E030E06CE070E0812F0E9454076B
:101A7000B601812F0E94650726E030E0AE014F5F7E
:101A80005F4F66E070E0812F0E94540761E070E0D4
:101A9000812F0E94450B27E02A9DC0012B9D900DB0
:101AA00011249C012E543C4F7901F90111821082BE
:101AB00022E030E0AE01455F5F4F68E270E0812FC9
:101AC0000E948A0C8B859C85982789279827F70187
:101AD000938382831682158214826CCF80E090EC0F
:101AE000A1CFCF92DF92EF92FF920F931F93CF93EC
:101AF000DF9300D000D000D0CDB7DEB78C016B01F2
:101B00007A01FC01808D843010F40E94610B8AEA16
:101B100091E09A838983F60182819381A481B581C2
:101B20008B839C83AD83BE83B701CE0101960E9457
:101B30009B0CF801808F8430A0F4F586E486128E29
:101B4000118E81E026960FB6F894DEBF0FBECDBF92
:101B5000DF91CF911F910F91FF90EF90DF90CF9089
:101B6000089580E0EFCFAF92BF92CF92DF92EF92D5
:101B7000FF920F931F93CF93DF9300D000D000D03C
:101B8000CDB7DEB7082F6B0180E591E00E9494018C
:101B90009E012F5F3F4F7901590110E063E070E033
:101BA000812F0E94280BF50181935F01882341F169
:101BB0001F5F143099F710E0F70181917F018D319B
:101BC000D1F08831C1F08A518230A8F01F5F143003
:101BD00099F7812F26960FB6F894DEBF0FBECDBFC2
:101BE000DF91CF911F910F91FF90EF90DF90CF90F9
:101BF000BF90AF90089560E170E0812F0E94450B87
:101C0000E12EF12C83EE93E00197F1F7402F70E085
:101C100060E0812F0E948F074FEF62E070E0812F1C
:101C20000E948F07B601CD2889F480910001909120
:101C3000010101968115F0EC9F0798F19093010145
:101C4000809300016091000170910101812F0E9439
:101C50007A0761E070E0812F0E94450B27E02E9DFE
:101C6000C0012F9D900D11249C012E543C4F7901F1
:101C7000F9011182108222E030E0AE014B5F5F4F2C
:101C800068E270E0812F0E948A0C8D819E819827E6
:101C900089279827F70193838283168215821482FD
:101CA00098CF80E090ECCACFCF92DF92EF92FF9274
:101CB0001F93CF93DF93EC017B016A018C85843005
:101CC00048F40E947A0B882319F08C850E94550BEA
:101CD00084E08C87F70182819381A481B58100978C
:101CE000A105B10551F490E080E0DF91CF911F9103
:101CF000FF90EF90DF90CF9008958F3F9F4FAF4FB1
:101D0000BF4F89F38091CE03811103C084E08C879B
:101D1000EACF70E060E081E20E94B30D182F8C875B
:101D2000843008F780E591E00E949401A7014E5F9E
:101D30005F4F24E030E06CE070E0812F0E94540798
:101D4000B601812F0E94650764E070E0812F0E9438
:101D5000450B0E940A036B017C018C850E947A0B63
:101D6000873109F18C31F9F0882309F4BCCF0E9446
:101D70000A03AB01BC014C195D096E097F098D8511
:101D80009E85B0E0A0E084179507A607B70738F056
:101D900061E070E080E090E00E94D702DECF8C85A9
:101DA0000E94610BB3CF81E090E09FCF0F931F9310
:101DB000CF93DF93EC018B01888D843010F40E9467
:101DC000610B8091CE03811107C094E0988FDF9161
:101DD000CF911F910F910895B80182E00E94B30D39
:101DE000888F843030F41D870C871A8E198E81E01D
:101DF000EECF80E0ECCF7F928F929F92AF92BF9216
:101E0000CF92DF92EF92FF920F931F93CF93DF93C6
:101E100000D0CDB7DEB7782E8B014A01590122E000
:101E200030E0AE014F5F5F4F64E270E00E948A0CC9
:101E3000E980FA80FE24EF24FE24E00EF11E9701D3
:101E400037704091CE03072D10E0433309F042C0B4
:101E5000085F1F4F102F0027110F110F110FC9011D
:101E6000800F911F4733C9F1A9014A0D5B1D413015
:101E7000584098F160E078E06B01C21AD30AA601DD
:101E8000B4010E948306A5014C195D09B4016C0DD3
:101E90007D1DC8010E948306EA0CFB1CF982EA82C0
:101EA00022E030E0AE014F5F5F4F64E270E0872DCB
:101EB0000E9454070F900F90DF91CF911F910F91C7
:101EC000FF90EF90DF90CF90BF90AF909F908F905A
:101ED0007F900895005F1F4FBDCFA501B401DACFF9
:101EE000EF92FF921F93CF93DF9300D0CDB7DEB771
:101EF000182F22E030E0AE014F5F5F4F60E270E0EC
:101F00000E948A0CE980FA80FE24EF24FE2422E05D
:101F100030E0AE014F5F5F4F60E270E0812F0E94C2
:101F20008A0C89819A81982789279827E816F906CB
:101F300089F487E0189FF0011124EE54FC4FF582DC
:101F4000E482C7010F900F90DF91CF911F91FF9016
:101F5000EF9008957C01DBCF1F93CF93DF93182F71
:101F600080E591E00E949401812F0E94700FEC01A6
:101F700063E070E0812F0E94280B873121F08C31C3
:101F800011F0D0E0C0E0CE01DF91CF911F91089514
:101F9000CF93DF93EC018C85843060F40E947A0B40
:101FA000873111F08C3131F48C850E94AC0F811592
:101FB000984088F3DF91CF910895FC0184858430A7
:101FC00010F40C94AC0F90E080E008959F92AF92D3
:101FD000BF92CF92DF92EF92FF920F931F93CF9316
:101FE000DF938C015B01942EE52EFC01C688D78817
:101FF000F08C80E591E00E9494018F2D0E94700F7B
:10200000C92DDE2D8C179D0708F4EC019E01A5015A
:10201000B6018F2D0E94FB0EF801868997898C0FDF
:102020009D1F978B868BCE01DF91CF911F910F91D2
:10203000FF90EF90DF90CF90BF90AF909F9008956A
:102040008F929F92AF92BF92CF92DF92EF92FF92C8
:102050000F931F93CF936C015B018A01FC01C48530
:10206000C430F0F57A014130584018F0E12C88E096
:10207000F82E80E591E00E9494018C2F0E94700F51
:102080004C0163E070E08C2F0E94280B873111F027
:102090008C3149F58E149F0460F380E591E00E9435
:1020A00094019701A50170E060E08C2F0E94FB0E67
:1020B00060E270E08C2F0E94450B62E070E08C2F94
:1020C0000E94280B84FD17C063E070E08C2F0E94F3
:1020D000280B81110BC081E090E0F601938382838D
:1020E00010E000E010C0F12CE12CD7CF80E591E0AA
:1020F0000E949401E2CF40E162E070E08C2F0E94E8
:102100008F07EF2841F3C801CF911F910F91FF90E6
:10211000EF90DF90CF90BF90AF909F908F900895F9
:10212000FF920F931F93CF93DF9300D0CDB7DEB70D
:10213000F82E22E030E0AE014F5F5F4F66E270E0C4
:102140000E948A0C09811A8110270127102722E09A
:1021500030E0AE014F5F5F4F66E270E08F2D0E946E
:102160008A0C89819A819827892798270817190747
:1021700049F4C8010F900F90DF91CF911F910F91FB
:10218000FF9008958C01E3CF1F93CF93DF93182F17
:1021900087E0189FE0011124CE54DC4F888199819B
:1021A000009761F480E591E00E949401812F0E94E4
:1021B00090102E81821B910999838883DF91CF91A2
:1021C0001F910895FC018485843010F40C94C41090
:1021D00090E080E008954F925F927F928F929F925D
:1021E000AF92BF92CF92DF92EF92FF920F931F9325
:1021F000CF93DF9300D0CDB7DEB7782E6B014A01C5
:10220000A82EB12C27E0829FC0011124FC01EE54BE
:10221000FC4F7F010081118180E591E00E949401D3
:102220000815190554F4872D0E949010F701268196
:102230008C01021B1109118300830115110529F579
:1022400063E070E0872D0E94280B843159F08823C9
:1022500049F001E010E08C3111F410E000E011953C
:1022600001951109C8010F900F90DF91CF911F9137
:102270000F91FF90EF90DF90CF90BF90AF909F9025
:102280008F907F905F904F900895801691060CF488
:10229000840187E08A9DF0018B9DF00D1124EE549E
:1022A000FC4FE280F380C114D10451F12701F7E023
:1022B0005F22872D0E944607840D951D2091CE0335
:1022C000273309F453C09801240D351D21303840BF
:1022D00008F44CC020E038E0490184189508A401B6
:1022E000B6010E949D0A2601480C591C6801C818B5
:1022F000D908872D0E944607A601B2010E949D0AB7
:10230000E00EF11E87E08A9DF0018B9DF00D1124F7
:10231000EE54FC4FF382E28220813181201B310B8D
:10232000318320838681800F912F911D8A3F9105F3
:1023300010F4232BF1F487E08A9DF0018B9DF00DC2
:102340001124EE54FC4F1682F982EA8222E030E03A
:10235000AE014F5F5F4F68E270E0872D0E94540727
:1023600060E470E0872D0E94450B7CCFA801B60188
:10237000C5CF868377CFCF93DF93FC01218D328D3C
:102380002115310529F48FEF9FEFDF91CF9108954B
:10239000EC01808D4217530708F0A9010E94EB1051
:1023A0001816190684F7298D3A8D281B390B3A8F98
:1023B000298FEBCF0F931F93CF93DF931F92CDB74E
:1023C000DEB7FC01218D328D232B41F48FEF9FEF7F
:1023D0000F90DF91CF911F910F9108958C0141E0F3
:1023E00050E0BE016F5F7F4FFC01808D0E94EB10BB
:1023F000181619065CF7F801818D928D0197928F5E
:10240000818F898190E0E4CFCF93DF931F92CDB786
:10241000DEB741E050E0BE016F5F7F4FFC01848575
:102420000E94EB101816190634F4898190E00F9081
:10243000DF91CF9108958FEF9FEFF9CFFC01848555
:10244000843010F40C94EB1090E080E008950F932A
:102450001F93CF93DF9300D0CDB7DEB7FC01248567
:102460002430E0F48C0180E591E00E94940122E0A8
:1024700030E0AE014F5F5F4F60E170E0F8018485AE
:102480000E948A0C89819A819827892798270F9022
:102490000F90DF91CF911F910F91089590E080E010
:1024A000F6CF0F931F93CF93DF9300D0CDB7DEB756
:1024B000FC0124852430E0F48C0180E591E00E9449
:1024C000940122E030E0AE014F5F5F4F64E070E0C6
:1024D000F80184850E948A0C89819A81982789272E
:1024E00098270F900F90DF91CF911F910F91089532
:1024F00090E080E0F6CFDC018AEA91E08D939D9335
:1025000084E0FB0101900D928A95E1F70895EF9226
:10251000FF920F931F93CF93DF9300D000D0CDB7DE
:10252000DEB78C017B01FB0184858430A8F08AEA48
:1025300091E0F801918380831282138214821582C4
:10254000C8010F900F900F900F90DF91CF911F91C6
:102550000F91FF90EF90089580E591E00E94940123
:1025600024E030E0AE014F5F5F4F6CE070E0F701B8
:1025700084850E948A0CBE016F5F7F4FC8010E9454
:102580007B12DECF0F931F93CF93DF93CDB7DEB7D0
:1025900028970FB6F894DEBF0FBECDBF8C01D801CF
:1025A00059964D915C915A974115510551F0ED9115
:1025B000FC91048CF58DE02D70E060E0C801099578
:1025C000EECFF801808D0E94C410892BB1F148E054
:1025D00050E0BE016F5F7F4FD80158968C910E94EA
:1025E000EB1018161906F4F4D801509684E0FE0199
:1025F000319601900D928A95E1F78D8190E0982FA8
:1026000088272E81820F911DF801958B848B8F81F5
:10261000282F30E0322F22278885820F932F911D9B
:10262000928F818F28960FB6F894DEBF0FBECDBF74
:10263000DF91CF911F910F91089590E080E0F2CF4C
:102640004F925F926F927F928F929F92AF92BF92C2
:10265000CF92DF92EF92FF920F931F93CF93DF936E
:10266000CDB7DEB763970FB6F894DEBF0FBECDBF10
:102670007C016B013A01FB0120E090E080E06AE020
:102680003191332309F461C040ED430F4A3008F023
:102690004DC0689FA001699F500D1124CA01C097C9
:1026A000830F911D37FD9A958F3F910549F340F3B4
:1026B000F70142815381648175818091A4049091D6
:1026C000A504A091A604B091A704481759076A076A
:1026D0007B0709F40DC28701085F1F4F0E940A03A0
:1026E0006F7077277C5FC8010E94D60E813009F099
:1026F00004C28AEA91E09A838983F70182819381F7
:10270000A481B5818B839C83AD83BE8345E350E078
:10271000BE016F5F7F4FC8010E94E407892BA9F5B6
:10272000D12CC12CC8010E946D0B17C03E3209F09C
:10273000BFCF233009F4BCCFD301A20FB11D129635
:102740008C932F5F90E080E09BCF233009F0B0CFD7
:10275000F3018583CC24C394D12CC60163960FB6B4
:10276000F894DEBF0FBECDBFDF91CF911F910F91C7
:10277000FF90EF90DF90CF90BF90AF909F908F90A1
:102780007F906F905F904F9008950E940A03F70129
:102790007783668342E050E0B7016A5F7F4FC801EC
:1027A0000E94E60F81E090E09A83898342E050E046
:1027B000BE016F5F7F4FC8010E94E60F80E091E08D
:1027C0009A83898342E050E0BE016F5F7F4FC8016A
:1027D0000E94E60F1A82198242E050E0BE016F5F4C
:1027E0007F4FC8010E94E60F42E050E0BE016F5FDC
:1027F0007F4FC8010E94E60F42E050E0BE016F5FCC
:102800007F4FC8010E94E60F5601F60180818823A0
:1028100001F16501F60181912F01882311F08E32BB
:10282000B1F446018A189B081814190474F48D86B3
:1028300041E050E0BE01635F7F4FC8010E94E60F98
:10284000A401B501C8010E94E60F5201DECF62016A
:10285000E1CF1D8641E050E0BE01635F7F4FC801BC
:102860000E94E60FC12CDD24D394DA82C98242E0B3
:1028700050E0BE016F5F7F4FC8010E94E60FDA8211
:10288000C98242E050E0BE016F5F7F4FC8010E94E5
:10289000E60FC8010E94E10B892B09F441CFF3E058
:1028A000AF2EB12C230122E0420E511CD4C0F701FF
:1028B0004281538164817581808D918DA28DB38D0C
:1028C000481759076A077B0709F008C1848D958D61
:1028D000C59709F003C181A192A15DEFC52EDD244A
:1028E000DA940C970CF4ADC04CE050E0BE016F5F81
:1028F0007F4FC8010E94BB118B819C81982789273B
:1029000098279A8B898BF7014681578129813A81D3
:102910004217530709F0E7C097FFE5C08F70927028
:102920003BEFC32EDD24DA94892B09F08AC06F8037
:1029300078847624672476242AEFC22EDD24DA9464
:102940006114710409F47DC0D12CC12C8D819E814C
:10295000982789279827C816D906F8F441E050E04F
:10296000BE01635F7F4FC8010E94BB114D854423A8
:1029700031F050E070E060E0C8010E94BB118D852D
:102980008111ECCF44E050E070E060E0C8010E94AB
:10299000BB11FFEFCF1ADF0AD9CF912C812C41E078
:1029A00050E0BE016D5E7F4FC8010E94BB114B8994
:1029B000842F807C09F06CC0442331F050E070E03B
:1029C00060E0C8010E94BB118B898111E8CF42E011
:1029D00050E0BE01615F7F4FC8010E94BB1142E021
:1029E00050E0BE01635F7F4FC8010E94BB1144E00D
:1029F00050E070E060E0C8010E94BB1142E050E08E
:102A0000BE016F5E7F4FC8010E94BB118F85988900
:102A100049895A898115914009F043C0CD84DE84EB
:102A2000DC24CD24DC2481E0C816D104D1F5411585
:102A3000544009F04AC044E050E0B201C8010E948D
:102A4000BB1121E0A21AB10809F46CCEFFEFCF163A
:102A5000DF0609F067CE0E940A033B014C01C80162
:102A60000E94C212181619060CF421CF0E940A0304
:102A700066197709880999096938734181059105B3
:102A800048F562E370E080E090E00E94D702E7CF73
:102A900041E050E070E060E0C8010E94BB111B8A79
:102AA00093CF54274527542770E060E0C8010E9467
:102AB000BB11FFEF8F1A9F0A6814790409F06FCFDA
:102AC00096EFC92EDD24DA94BCCFE7EFCE2EDD24BD
:102AD000DA94B7CFCC24CA94DC2CB3CF6EEFC62ED9
:102AE000DD24DA94AECF4CEFC42EDD24DA94A9CFE6
:102AF0008EEFC82EDD24DA9430CED12CC12C2DCE11
:102B0000CF92DF92EF92FF920F931F93CF93DF93B9
:102B1000CDB7DEB7AF970FB6F894DEBF0FBECDBF0F
:102B20007C016A010AEA11E01A8309831C861B866C
:102B300088EE93E0A0E0B0E08D879E87AF87B88BEA
:102B40008EE191E09A878987188F0F8B198E1A8EE4
:102B50001B8E1C8E84E089A31BA70AA71CA61DA69A
:102B60001EA61FA68091980490919904A0919A04A2
:102B7000B0919B048EA39FA3A8A7B9A78B839C8326
:102B8000AD83BE8318861F82AE01465D5F4FCE01C6
:102B900001960E94201381309105B1F4D701ED9187
:102BA000FC910488F589E02D1DA30CA38CA59DA59F
:102BB000AEA5BFA58EA39FA3A8A7B9A7A601BE01D6
:102BC0006C5D7F4FC7010995AF960FB6F894DEBFD5
:102BD0000FBECDBFDF91CF911F910F91FF90EF906E
:102BE000DF90CF900895CF92DF92EF92FF920F93F4
:102BF0001F93CF93DF93CDB7DEB7AF970FB6F8949F
:102C0000DEBF0FBECDBF8C016B017A018AEA91E075
:102C10009A8389831B821C821D821E821C861B86CE
:102C200048EE53E060E070E04D875E876F87788BF9
:102C30002EE131E03A872987988F8F8B198E1A8E73
:102C40001B8E1C8E24E029A39BA78AA71CA61DA669
:102C50001EA61FA6D8011C968C91843060F40E9499
:102C60007A0B882321F0F80184850E94550B84E0BB
:102C7000D8011C968C938091980490919904A0910E
:102C80009A04B0919B048EA39FA3A8A7B9A78B8396
:102C90009C83AD83BE8318861F82AE01465D5F4F65
:102CA000B601CE0101960E9420130097C1F0D80111
:102CB000ED91FC910684F785E02D8AEA91E09DA3D1
:102CC0008CA38CA59DA5AEA5BFA58EA39FA3A8A7E9
:102CD000B9A7A701BE016C5D7F4FC8010995AF96EA
:102CE0000FB6F894DEBF0FBECDBFDF91CF911F911D
:102CF0000F91FF90EF90DF90CF9008957F928F9289
:102D00009F92AF92BF92CF92DF92EF92FF920F937A
:102D10001F93CF93DF93CDB7DEB7A6970FB6F89486
:102D2000DEBF0FBECDBF8C01762E942E852E20E205
:102D3000A22ECE0101967C01DC01EA2D1D92EA95BE
:102D4000E9F76801F3E4CF0ED11C8AEA91E09AA377
:102D500089A38FEF8BA38CA38DA38EA343E450E0B4
:102D6000BE016F5D7F4FC6010E94E407019609F422
:102D7000BFC081E089838A8386E0B82EBB821C8233
:102D8000D80114966D917D918D919C9117970E9419
:102D90002A346D837E838F83988789869A8680E81C
:102DA00090E09C878B874CE150E0B701C6010E9400
:102DB000E60FFE0137968AE1DF011D928A95E9F759
:102DC0004801B8E08B0E911CF401D70101900D92DF
:102DD000BA94E1F740E150E0B701C6010E94E60F66
:102DE000F7011192AA94E9F796E0A92EB12C40E2DE
:102DF00050E0B701C6010E94E60FF1E0AF1AB1083A
:102E0000B1F783E6898392E89A8393E59B838C8369
:102E100085E38D8381E08E837F829DE3988797E0B1
:102E200099878A8786E0F401DE011B9601900D9256
:102E30008A95E1F78CE0898B8A8B64EF71E0CE0193
:102E400043960E948535D8011B966C91CE01499618
:102E50000E949701F8016485CE014B960E9497016C
:102E6000D8011D966C91CE014D960E9497014EE1BE
:102E700050E0B701C6010E94E60FB3E07B121EC00E
:102E800082E3898384E08A83F80196859B83978512
:102E90009C8390899D8391899E8396E39F838887F5
:102EA000828D8987838D8A87848D8B87858D8C879A
:102EB0004CE050E0B701C6010E94E60F87E389832A
:102EC00086E08A8391E09B8393E09C838D838FE0EF
:102ED0008E838AE38F838BE388878FEF898749E02E
:102EE00050E0B701C6010E94E60FC6010E94E10B47
:102EF000A6960FB6F894DEBF0FBECDBFDF91CF917F
:102F00001F910F91FF90EF90DF90CF90BF90AF9007
:102F10009F908F907F9008950F931F93CF93DF938F
:102F2000EC01FB0101900020E9F78F01061B170B54
:102F30008A819B81A801480F591F2C813D8124174C
:102F4000350768F028813981A801820F931F0E94FC
:102F50006C354A815B81400F511F5B834A83DF914F
:102F6000CF911F910F9108950F931F93CF93DF93EC
:102F7000EC0188819981009759F02A813B812617BD
:102F8000370730F081E0DF91CF911F910F910895C5
:102F90008B016F5F7F4F0E94A234009759F0998395
:102FA00088831B830A832C813D81232B59F7FC01E5
:102FB0001082E8CF80E0E7CF85ED8093BC00809160
:102FC000080390910903A0910A03B0910B0307969F
:102FD000A11DB11D23E0B695A795979587952A95D4
:102FE000D1F72091BC0024FD03C010920603089580
:102FF000409108035091090360910A0370910B03FB
:10300000452B462B472B69F30097A105B10541F0ED
:103010002AE22A95F1F700C00197A109B109E1CF91
:10302000809107030C94C0043F924F925F926F927D
:103030007F928F929F92AF92BF92CF92DF92EF9248
:10304000FF920F931F93CF93DF93CDB7DEB7EA972D
:103050000FB6F894DEBF0FBECDBF7C012A013B0145
:1030600069010E940A034B015C0187010D5B1F4F40
:10307000C8010E94C212181619069CF00E940A0389
:10308000681979098A099B09461657066806790660
:1030900008F466C162E370E080E090E00E94D7022D
:1030A000E7CF42E250E0BE016F5F7F4FC8010E9450
:1030B000BB1189818230D1F0312C832DEA960FB675
:1030C000F894DEBF0FBECDBFDF91CF911F910F915E
:1030D000FF90EF90DF90CF90BF90AF909F908F9038
:1030E0007F906F905F904F903F900895F801848992
:1030F00095898334910501F76D817E818F81988553
:103100000E942A344B015C01F60180829182A282E6
:10311000B38246E050E0B701685F7F4FCE014D9625
:103120000E945F35892B41F6F70180819181A28150
:10313000B38188169906AA06BB0608F4BDCF848120
:103140009581A681B78188159905AA05BB0508F464
:10315000B3CF89899A89AB89BC8986879787A08BE9
:10316000B18B4EEC50E070E060E0C8010E94BB11F2
:10317000312CC701829698AB8FA7F701B696FAABB0
:10318000E9AB08969CAB8BAB67019AE1C90ED11CE9
:10319000BD96FEABEDABC701429698AF8FABFD97E6
:1031A000FAAFE9AF4701FEE18F0E911CF801818D66
:1031B000928D181619060CF080CFC8010E94DA1102
:1031C0008333910509F4B2C014F58130910509F4F7
:1031D00064C044F4892B51F3C8010E94DA11AC0198
:1031E000552775C08330910509F462C00697A1F791
:1031F000C8010E94DA11B82E44E050E0B401C801C1
:103200000E94BB11EB2DE450FF0BAF0160C08A336D
:10321000910509F45FC084F585339105B1F1C69736
:10322000D9F6C8010E94DA115C01B601CE01899677
:103230000E947B128BA59CA5ADA5BEA5892B8A2BD0
:103240008B2BB1F0EDA9FEA9408051806280738084
:10325000B601CE0183960E947B128DA19EA1AFA1E3
:10326000B8A5A501481659066A067B0609F0B8CF2D
:1032700044E050E0B60118C08B33910509F440C01A
:103280008F3F910509F492CFA7CFC8010E94DA11B0
:10329000C8010E94DA11382E89CFC8010E94DA11C4
:1032A00044E050E06FA978ADC8010E94BB117ECF09
:1032B000C8010E94DA11B82E44E050E069AD7AAD41
:1032C000C8010E94BB118B2D8450990BAC0170E09A
:1032D00060E0EACFC8010E94DA1144E050E069A939
:1032E0007AA9C8010E94BB11F70166A177A180A548
:1032F00091A50E942A3466A377A380A791A756CFF1
:10330000C8010E94DA1144E050E06BA97CA9C80111
:103310000E94BB11F70162A573A584A595A50E9423
:103320002A3462A773A784A795A740CFC8010E943B
:10333000DA1144E050E06FA578A9C8010E94BB11E2
:10334000F70162A173A184A195A10E942A3462A30E
:1033500073A384A395A366A777A780AB91AB26CF71
:1033600033243A94AACE0F931F93CF93DF93CDB714
:10337000DEB728970FB6F894DEBF0FBECDBF8C0125
:10338000CB014AE0BE016F5F7F4F0E94612FBE01FB
:103390006F5F7F4FC8010E948C1728960FB6F89474
:1033A000DEBF0FBECDBFDF91CF911F910F9108956A
:1033B0003F924F925F926F927F928F929F92AF92C5
:1033C000BF92CF92DF92EF92FF920F931F93CF9312
:1033D000DF93CDB7DEB7A1970FB6F894DEBF0FBE6F
:1033E000CDBF5C010DB71EB719A308A360E070E064
:1033F000CB010E94D702D50191968D919C91929715
:10340000912C029709F498C090968C9190978F5FB9
:1034100090968C9390975E962D913C91232B19F06A
:103420009924939482C08330D8F7F50182859385DF
:103430000E94B008882309F440C38E010F5F1F4F1C
:103440003801D5011A96ED91FC9180819181DC01C2
:10345000ED91FC910084F185E02D0995181619066F
:103460000CF02BC3D5011A96ED91FC9145E050E08C
:10347000BE01695E7F4F808191810E941903009790
:1034800001F3059709F04AC0888D998D98278927FF
:103490009827998F888FEA8CFB8CFE24EF24FE24DA
:1034A000FB8EEA8E892BD1F18F8981116AC00E942F
:1034B0000A03F501608B718B828B938B21A132A162
:1034C0004A8D5B8D232B09F057C0288D398D213013
:1034D000310509F051C049305105E1F0483C510532
:1034E00019F044305105D1F4D50158966D937D9370
:1034F0008D939C935B97E1E0F0E09296FC93EE93C2
:103500009197C5010E94492360E070E0CB010E94C1
:10351000D70297CF83E090E092A381A3D5011A96BA
:103520008D919C910E94C308912CD50190968C910D
:103530009097815090968C93892DE8A1F9A10FB6B0
:10354000F894FEBF0FBEEDBFA1960FB6F894DEBF94
:103550000FBECDBFDF91CF911F910F91FF90EF90E4
:10356000DF90CF90BF90AF909F908F907F906F90A3
:103570005F904F903F9008954530510509F061CF1D
:10358000CDCFF50182859385F1E0EF16FF0640F07F
:10359000D50192961C921E9291970E94C30851CF1A
:1035A0008DB69EB697012F5F3F4FEDB7FEB7E21B7A
:1035B000F30B0FB6F894FEBF0FBEEDBF0DB71EB7ED
:1035C0000F5F1F4FA701B801DC018D919C910E94F4
:1035D00019038E159F0509F05FC0EA8DFB8DE00F82
:1035E000F11F10820E940A03F501608B718B828BA0
:1035F000938B8F89843109F4ABC0E8F48F3009F4E0
:10360000A7C0813109F43CC2863009F04EC2488D12
:10361000598DD12CC12CF12CE12C08EC10E030E0BC
:1036200020E060E0C5010E94501E0FB6F8949EBED7
:103630000FBE8DBE06CF8932C9F08733B1F38D310D
:1036400009F033C2D50181A192A1892B01F7E1E0F4
:10365000F0E09296FC93EE939197C5010E94492366
:1036600060E070E0CB010E94D702D1CF86859785BC
:10367000892B39F480E490E00E944A2DF501978768
:103680008687EA8CFB8CE00EF11E1A830983FC828C
:10369000EB820E151F0530F00FB6F8949EBE0FBEDC
:1036A0008DBE3CCF40E450E0B801D5011E968D910F
:1036B0009C910E948C35D5011E96ED91FC9117AE20
:1036C000C3010E942723FC018081918100E510E065
:1036D0008E159F0560F489819A810097A9F12B814D
:1036E0003C818217930780F50E94312F8B01D50111
:1036F0001A968D919C910E94C308D5011A96ED915E
:10370000FC911B971E968D919C911F9791878087A6
:103710001387028792961C921E9291970E940A0329
:10372000DC01CB0188589341A109B109F501848BD3
:10373000958BA68BB78B808B918BA28BB38B808F55
:10374000918FA28FB38F71CF60E070E0CB01CECFAD
:10375000888D998DD5015F969C938E935E974A8C48
:103760005B8C6801C40CD51C1D8F0C8FDF8ECE8E38
:103770000C151D0508F013C1F801E080F180CE01A1
:103780004C960E942723DC018D919C918C159D0500
:1037900008F005C18C8D9D8DFC012081213459F4E8
:1037A00001960E94132F4EE0342E380E069744F0F7
:1037B00033243A9405C0CE014C960E943A23382E09
:1037C000F6E7EF16F2E7FF0609F406C138F531E631
:1037D000E31632E7F30609F4E6C044E6E41642E7EE
:1037E000F40609F478C050E7E5165DE6F50609F041
:1037F00039C18C8D9D8D8C159D0508F0D0C0FC01C4
:1038000020812134A9F501960E94132F3EE0F32E6A
:10381000F80E069794F1FF24FA942FC084E6E81678
:1038200087E7F80609F4A2C096E7E91697E7F906D4
:1038300009F4EAC0A1E6EA16A7E7FA0609F012C100
:10384000CE014C960E942723DC018D919C918C1512
:103850009D0508F0A4C061E0832D0E940402CE0102
:103860004C960E943A23BC01832D0E94400297C0CF
:10387000CE014C960E943A23F82ECE014C960E941F
:1038800027230C8D1D8D6BEF71E0C8010E947C35E4
:1038900060E0892B79F06EEF71E0C8010E947C3501
:1038A000892B39F062E072E0C8010E947C35892BD7
:1038B00049F461E08F2D0E940402CE014C960E94D3
:1038C000272397CF66E072E0C8010E947C35892BE0
:1038D000A1F762E0EFCF7A8A698A1C8A1B8A00E12D
:1038E00010E01E8B0D8B69E072E0CE0141960E94C4
:1038F0008C17032D10E0B801CE0141960E94B31938
:10390000F801E85CFD4F8491F801EC5DFD4FF49007
:10391000005F1D4FF801049160E070E0002389F022
:1039200081110E94AD01E02FF0E0EE0FFF1FEA5F72
:10393000FD4FA591B491EC91FE2261E070E009F495
:1039400060E0CE0141960E94B3190B891C89015099
:10395000110929893A89D12CC12CF12CE12C50E094
:1039600040E064E1C5010E94501E19C0CE014C9692
:103970000E942723DC018D919C918C159D0578F484
:1039800061E0832D0E940402CE014C960E943A23EE
:1039900061E0892B09F460E0832D0E94D601F501D6
:1039A000178E168E42CE7A8A698A1C8A1B8AE0E1BB
:1039B000F0E0FE8BED8B6CE072E0CE0141960E9450
:1039C0008C17632D70E0CE0141960E94B319832DB0
:1039D0000E949D02BC01B5CFE32DF0E0FA83E9839C
:1039E000BFE1B315E0F2EE0FFF1FE45BFD4F259141
:1039F00034912115310599F2E1E023393E0779F23E
:103A0000C301F9010995CBCFCE014C960E94272323
:103A10008C8D9D8D9C01201B310B421A530A9A8379
:103A200089835C824B825E824D82E32DF0E0FA8BCB
:103A3000E98B0FE1031508F4B2CFEE0FFF1FE45737
:103A4000FD4F259134912115310509F4A8CF11E0DE
:103A50002239310709F4A3CFB301CE014196F90110
:103A600009959DCFD5015E964D915C91D12CC12CCD
:103A7000F12CE12C02E010E030E020E060E072CFB9
:103A80008A8D9B8D800F911F1A8309839C838B8362
:103A90000817190708F0C9CDC3010E942723D501D3
:103AA0005F961C921E925E97C0CDF50112A211A2E4
:103AB000828593850E94C308B8CD0E940A032B011A
:103AC0003C01F501828593850E94B008D50191964D
:103AD0002D913C912130310509F05EC0F501811135
:103AE00009C0408E518E628E738E12A211A2828501
:103AF000938518CD80899189A289B3899301820128
:103B0000081B190B2A0B3B0BD901C801893116EF91
:103B10009107A105B10548F7893C9F4AA105B10568
:103B200090F484899589A689B78993018201081B3D
:103B3000190B2A0B3B0BD901C801893C9F4AA105EF
:103B4000B10508F46DCCF501808D918DA28DB38DFA
:103B500093018201081B190B2A0B3B0BD901C801E9
:103B600081379741A105B10508F45ACCD12CC12C5D
:103B7000F12CE12C10E000E030E020E050E040E0EB
:103B800066E0C5010E94501ED50158964D925D9287
:103B90006D927C925B9744CC232B09F041CCF501CC
:103BA000408D518D628D738D93018201041B150B25
:103BB000260B370BB901A801882381F04137574103
:103BC0006105710508F42CCC828593850E94C30899
:103BD000D50192961C921E929197A6CC49385341DA
:103BE0006105710508F41CCC828593850E94C30889
:103BF000D5011A960D911C91F80162857385C80153
:103C00000E946908D8011C968C931C9781110DC0E5
:103C10001A968D919C918035910599F460E97FE128
:103C2000C8010E946908F8018487F8019484911002
:103C300014C0D50158964D925D926D927C925B971F
:103C400074CC80399F4189F760E570E0C8010E941B
:103C50006908D8011C968C93E8CF81E090E0F501CB
:103C6000958F848F24853585F90101900020E9F72F
:103C700031978F01021B130BD12CC12CF12CE12C9D
:103C800041E050E06DE1C5010E94501EF5018489BC
:103C90009589A689B789808F918FA28FB38F45CCE4
:103CA0002F923F924F925F926F927F928F929F924C
:103CB000AF92BF92CF92DF92EF92FF920F931F933A
:103CC000CF93DF93CDB7DEB7C854D1090FB6F894C0
:103CD000DEBF0FBECDBF4C0168AF5AAF49AF2796CC
:103CE0003FAF2EAF279721961FAF0EAF2197299692
:103CF000FFAEEEAE29972396DFAECEAE2397DC0162
:103D00001A968D919C910E94B008882309F4B7C13E
:103D1000B8ADBB2351F0B63041F0BD3131F0F40104
:103D200081A192A1019709F0AAC188AD8F50863078
:103D3000A0F5D40154964D915D916D917C9157976A
:103D40005096CD90DD90ED90FC905397C416D5061B
:103D5000E606F70610F46A017B01B2E4CB0ED11C33
:103D6000E11CF11C0E940A03A7019601261B370BD8
:103D7000480B590BDA01C901B7FD9BC1C4010E9470
:103D8000D8190E940A03A7019601261B370B480B7E
:103D9000590BDA01C901B7FFF1CFF401808191819C
:103DA000019709F0B2C082E090E091838083228184
:103DB0003381448155816681778180859185A0E03A
:103DC000FE017A960E94903409F486C1FBABEAABFF
:103DD0001DAA1CAA88E190E09FAB8EAB69EF71E051
:103DE000CE01C2960E948C17D40112964C90129765
:103DF00013965C90139714966C90149715967C907C
:103E000015971696BC91BBAFF401F781FCAFD401B6
:103E100018962C90189719963C90198E9201A30130
:103E20006BAD7F2FC101A0E00E94903409F44AC11C
:103E3000FE0179962596FFAFEEAF259727E130E09A
:103E40003EAF2DAF8AE0A82EB12CC12CD12CE12C95
:103E5000F12C00E010E09201A3016BAD7CADC1013B
:103E60000E943134F901EF5EFD4F80812596AEADA1
:103E7000BFAD25978E932596BFAFAEAF2597EDAD1D
:103E8000FEAD3197FEAFEDAF9AE0A92EB12CC12C5B
:103E9000D12CE12CF12C00E010E09201A3016BADDC
:103EA0007CADC1010E94333429013A016BAF7CAF74
:103EB0001C01A0E00E94903421F04DAD5EAD452B79
:103EC00009F66DAD7EAD6C0F7D1F6E5F7F4F09F003
:103ED000FEC0EAA9FBA98CA99DA99C012F5F3F4FB9
:103EE0003DAB2CABE80FF91F10820CA91DA90150A6
:103EF00011092AA93BA9D12CC12CF12CE12C50E0AD
:103F000040E065E1C4010E94501E29AD3AAD232B6B
:103F1000B9F4D4015E960D90BC91A02DBAAFA9AFB3
:103F2000AB2B71F4F401848D958D019609F4E9C0F1
:103F3000958F848FF401048CF58DE02DFAAFE9AFF5
:103F400027962EAD3FAD279721960EAD1FAD219739
:103F50000B5F1F4F232B11F405E010E029964EADA7
:103F60005FAD299790E080E0452B21F023968EAD40
:103F70009FAD2397080F191F58AD598389AD9AAD8E
:103F80009827892798279B838A8321968EAD9FAD9A
:103F900021972396AEADBFAD23978A0F9B1F98271D
:103FA000892798279D838C83D4011A96ED91FC91E3
:103FB00080819181DC01ED91FC910280F381E02D03
:103FC00045E050E0BE016F5F7F4F09957C0160E0E6
:103FD00070E0CB010E94D702B8ADBB2309F444C006
:103FE0002196EEADFFAD2197EF2BE1F0D4011A96AB
:103FF000ED91FC9180819181DC01ED91FC91028039
:10400000F381E02D21964EAD5FAD219727966EADE1
:104010007FAD27970995E80EF91E60E070E0CB01AF
:104020000E94D7022396EEADFFAD2397EF2BE1F070
:10403000D4011A96ED91FC9180819181DC01ED9182
:10404000FC910280F381E02D23964EAD5FAD239766
:1040500029966EAD7FAD29970995E80EF91E60E0AF
:1040600070E0CB010E94D702E016F10609F44EC0C1
:10407000F40112A211A2828593850E94C308C85B35
:10408000DF4F0FB6F894DEBF0FBECDBFDF91CF91EB
:104090001F910F91FF90EF90DF90CF90BF90AF9066
:1040A0009F908F907F906F905F904F903F902F9058
:1040B0000895D40190968C9181116FCEC4010E9415
:1040C000D8196BCE80E3888FBE01685E7F4FCE012A
:1040D000C2960E948C1709CFFA83E9831C821B8247
:1040E00084E090E09E838D836FE072E0CE010196C4
:1040F0000E948C170B811C810150110929813A8182
:10410000FACE81E090E0958F848F14CF0E940A034D
:10411000D40154966D937D938D939C935797AFCF15
:10412000CF92DF92EF92FF920F931F93CF93DF9383
:10413000CDB7DEB7C658D1090FB6F894DEBF0FBEB3
:10414000CDBF7C018B01CE010196CF57DF4F998304
:104150008883C158D040CD57DF4F19821882C35889
:10416000D04080E890E0CB57DF4F99838883C558D3
:10417000D04065E372E0CE018F579F4F0E948C17AD
:10418000B701CE018F579F4F0E94B319B801CE01DE
:104190008F579F4F0E94B319CD57DF4F0881198168
:1041A000C358D04001501109CF57DF4F28813981C2
:1041B000C158D040D12CC12CF12CE12C50E040E072
:1041C00064E182E795E00E94501ECA57DF4F0FB6A8
:1041D000F894DEBF0FBECDBFDF91CF911F910F913D
:1041E000FF90EF90DF90CF900895CF92DF92EF9203
:1041F000FF920F931F93CF93DF93CDB7DEB7C75ACC
:10420000D1090FB6F894DEBF0FBECDBF0E943D08A6
:104210006B017C01CE010196CE55DF4F99838883D7
:10422000C25AD040CC55DF4F19821882C45AD040B0
:1042300080E890E0CA55DF4F99838883C65AD04002
:1042400065E372E0CE018E559F4F0E948C1761E0AE
:1042500070E0CE018E559F4F0E94B3198E010F570B
:104260001F4F23E045E0C701B6010E942C2DB80185
:10427000CE018E559F4F0E948C17CC55DF4F088181
:104280001981C45AD04001501109CE55DF4F288101
:104290003981C25AD040D12CC12CF12CE12C50E0F4
:1042A00040E064E182E795E00E94501EC955DF4F6F
:1042B0000FB6F894DEBF0FBECDBFDF91CF911F9137
:1042C0000F91FF90EF90DF90CF9008951F920F9283
:1042D0000FB60F9211242F933F938F939F93AF9319
:1042E000BF938091AA039091AB03A091AC03B091CE
:1042F000AD033091A90323E0230F2D3758F5019624
:10430000A11DB11D2093A9038093AA039093AB0331
:10431000A093AC03B093AD038091AE039091AF0333
:10432000A091B003B091B1030196A11DB11D80937E
:10433000AE039093AF03A093B003B093B103BF91CA
:10434000AF919F918F913F912F910F900FBE0F9042
:104350001F90189526E8230F0296A11DB11DD2CFFC
:104360001F920F920FB60F9211242F933F934F93EA
:104370005F936F937F938F939F93AF93BF93EF93CD
:10438000FF938FEC93E00E94E703FF91EF91BF91C1
:10439000AF919F918F917F916F915F914F913F91DD
:1043A0002F910F900FBE0F901F9018951F920F9294
:1043B0000FB60F9211242F938F939F93EF93FF9338
:1043C000E091DF03F091E0038081E091E503F0915B
:1043D000E60382FD1BC090818091E8038F5F8F739D
:1043E0002091E903821741F0E091E803F0E0E15306
:1043F000FC4F958F8093E803FF91EF919F918F91F0
:104400002F910F900FBE0F901F9018958081F4CFC1
:104410001F920F920FB60F9211242F933F934F9339
:104420005F936F937F938F939F93AF93BF93EF931C
:10443000FF938091B900887F803609F44AC0F0F577
:10444000883209F4A7C018F5803109F49BC0B8F48C
:10445000882309F4F9C0883009F494C0FF91EF91E2
:10446000BF91AF919F918F917F916F915F914F918C
:104470003F912F910F900FBE0F901F90189588318C
:1044800009F488C0803251F78093040314C080344B
:1044900009F49DC040F48033B9F38833F9F6809372
:1044A000040385ECB0C0803509F485C0883509F473
:1044B00096C0883499F60E94DC17D0CF883909F469
:1044C0008CC038F5883729F050F4883611F08037E1
:1044D00029F683E0809306031092DF0257C08838E4
:1044E00009F47BC0803919F0803809F0B7CF80918A
:1044F000DF02803208F071C0E091DF0281E08E0FB0
:104500008093DF028091BB00F0E0E154FD4F808397
:104510003DC0803B39F0E0F4803A09F479C0883A34
:1045200009F09CCF84E0809306031092BE021092A3
:10453000BD02E0913003F091310309958091BD02F5
:1045400081110FC081E08093BD0210929D0209C0CD
:10455000803C09F4A6CF883C09F4A3CF883B09F03E
:104560007DCFE091BE0281E08E0F8093BE02F0E02D
:10457000E356FD4F80818093BB009091BE028091F5
:10458000BD0229C08091E1028093BB0085EC80933D
:10459000BC0064CF9091030380910203981758F5F3
:1045A000E091030381E08E0F80930303F0E0EE516E
:1045B000FD4F8081E9CFE091030381E08E0F80936E
:1045C00003038091BB00F0E0EE51FD4F808390919A
:1045D0000303809102039817C8F285E8D8CFE091D1
:1045E000030381E08E0F809303038091BB00F0E012
:1045F000EE51FD4F80838091050381115CCF81E0F6
:104600008093E00284EA8093BC001092060326CFD8
:1046100085EC8093BC00109206038091DF0280320B
:1046200030F4E091DF02F0E0E154FD4F1082609140
:10463000DF0270E0E0912E03F0912F038FEB92E008
:1046400009951092DF020ACF1092040334CFDC01E7
:10465000ED91FC911197309761F012962D913C915C
:104660001397E217F30728F401900020E9F7ED9380
:10467000FC930895FC0180819181009739F022819B
:1046800033818217930710F40C94132F90E080E08D
:104690000895AF92BF92CF92DF92EF92FF920F9365
:1046A0001F93CF93DF93CDB7DEB7CC5CD1090FB6A4
:1046B000F894DEBF0FBECDBF5C01CE0189579F4F7E
:1046C000C953DF4F99838883C75CD040C753DF4FFE
:1046D00019821882C95CD04080E490E0C553DF4F56
:1046E00099838883CB5CD04062E272E0CE0189532B
:1046F0009F4F0E948C1767E272E0CE0189539F4F53
:104700000E948C1746E850E06AE671E0CE010196FF
:104710000E94582FC753DF4FC880D980C95CD04052
:1047200081E0C81AD108C953DF4FE880F980C75C1F
:10473000D04006E810E09E012F5F3F4F50E040E080
:1047400061E1C5010E94501EC453DF4F0FB6F894BB
:10475000DEBF0FBECDBFDF91CF911F910F91FF90B4
:10476000EF90DF90CF90BF90AF9008951092D2035A
:104770001092D10388EE93E0A0E0B0E08093D303E1
:104780009093D403A093D503B093D60328E431E0EB
:104790003093D0032093CF0325EC30E03093DC033B
:1047A0002093DB0324EC30E03093DE032093DD0321
:1047B00020EC30E03093E0032093DF0321EC30E085
:1047C0003093E2032093E10322EC30E03093E403E2
:1047D0002093E30326EC30E03093E6032093E503D7
:1047E0001092E8031092E9031092EA031092EB038F
:1047F00010926F0410926E04809370049093710471
:10480000A0937204B09373048AE591E090936D04D1
:1048100080936C048AEA91E0909379048093780401
:1048200010927A0410927B0410927C0410927D0402
:1048300090937F0480937E041092800410928104F0
:1048400010928204109283049093850480938404D0
:1048500010928604109287041092880410928904A2
:1048600090938B0480938A0410928C0410928D0490
:1048700010928E0410928F04909391048093900470
:104880001092920410929304109294041092950442
:1048900090939D0480939C0410929E0410929F0418
:1048A0001092A0041092A104909397048093960410
:1048B000109298041092990410929A0410929B04FA
:1048C0009093A3048093A2041092A4041092A504D0
:1048D0001092A6041092A7049093A9048093A804B0
:1048E0001092AA041092AB041092AC041092AD0482
:1048F0009093B8058093B7051092B9051092BA0548
:104900001092BB051092BC051092AB051092AA053F
:1049100028E731E03093A9052093A80524E02093EF
:10492000B40528EE33E03093B6052093B505909397
:104930009E0580939D0510929F051092A0051092F0
:10494000A1051092A2051092A4051092A305109241
:10495000A6051092A5051092A70588EA95E0909308
:104960009C0580939B0580E797E1A0E0B0E08093F1
:10497000AC059093AD05A093AE05B093AF05109232
:1049800073051092720510927405109275051092BD
:10499000760510927705109278051092790510929D
:1049A0007A0510927B058BE995E090937D058093C5
:1049B0007C0510927F0510927E0510928105109261
:1049C0008005109282051092830510928405109242
:1049D0008505109286051092870510928805109221
:1049E000890510928A0510928B0510928C05109201
:1049F0008D0510928F0510928E05109291051092E0
:104A000090051092920510929405109293058FEFE5
:104A10009FEF90937105809370051092B7041092E8
:104A2000B6048CE691E09093B5048093B40487E2D9
:104A30008093B80480E18093BD0482E08093BE043B
:104A40001092BF041092AF041092AE041092B10401
:104A50001092B0041092B3041092B20470E060E0BF
:104A60008EEA94E00E94B4172091AE043091AF0416
:104A7000811113C02115310519F0C9010E94E62DDD
:104A80001092AF041092AE041092B3041092B204CC
:104A90001092B1041092B00408951092B3041092D1
:104AA000B20469EC71E0C9010C948535CF93DF93B2
:104AB000CDB7DEB7AF970FB6F894DEBF0FBECDBF50
:104AC000789484B5826084BD84B5816084BD85B5E9
:104AD000826085BD85B5816085BD80916E008160F5
:104AE00080936E001092810080918100826080939B
:104AF000810080918100816080938100809180009D
:104B00008160809380008091B10084608093B100C7
:104B10008091B00081608093B00080917A008460C1
:104B200080937A0080917A00826080937A008091ED
:104B30007A00816080937A0080917A008068809307
:104B40007A001092C1001092350310923403109233
:104B50003303109232030E94A20486E193E0909303
:104B600031038093300387E193E090932F03809388
:104B70002E031092B9048091BE04823018F098E0A0
:104B80009093B9048093BC0462E370E080E090E00D
:104B90000E94D7026091BF0484EB94E00E946605F6
:104BA00068EE73E080E090E00E94D70260E384EB5F
:104BB00094E00E94EF080BE416E4C8010197F1F7B6
:104BC00060E384EB94E00E94EF08C8010197F1F7DD
:104BD00060E384EB94E00E94EF0883E592E00197A4
:104BE000F1F760E284EB94E00E94EF086091B90471
:104BF000606240E084EB94E00E94080984E08093C6
:104C0000BA0440E06CE084EB94E00E9408090E9442
:104C10005209F2E0FF2EF092BB0440E066E084EB24
:104C200094E00E94080940E062E084EB94E00E9476
:104C300008090BE31FE1C8010197F1F788E08093B1
:104C4000BF0460E084EB94E00E9466050E94520974
:104C500040E062E084EB94E00E940809C8010197FB
:104C6000F1F760E080E00E941F0988E392E00E9473
:104C7000060A68EE73E080E090E00E94D7020E948E
:104C8000520960E080E00E941F0988E492E00E94DF
:104C9000060A61E080E00E941F098BE492E00E9416
:104CA000060A61E083E00E94040260E08FE00E9457
:104CB000040261E085E00E94040261E084E00E9459
:104CC000040260E08EE00E940402E091DF03F091B4
:104CD000E003F082E091DB03F091DC031082E091CD
:104CE000DD03F091DE0387E680831092E703E09115
:104CF000E303F091E40386E08083E091E103F09127
:104D0000E203808180618083E091E103F091E2031E
:104D1000808188608083E091E103F091E2038081EB
:104D200080688083E091E103F091E20380818F7DD0
:104D300080838EEF809395059DEE909396052AEBE8
:104D400020939705809398058093990590939A05F1
:104D5000AEE4B2E0E1E0F0E09F012F5F3F4F4D9104
:104D6000EE58FA4F83A1842783A3F9012630310539
:104D700014F0E1E0F0E022E0AE36B20769F780918E
:104D80009C0381112AC0109284031092830388EE41
:104D900093E0A0E0B0E08093850390938603A09316
:104DA0008703B09388038EE191E090938203809310
:104DB00081038AEA91E09093900380938F0310928D
:104DC000910310929203109293031092940384E043
:104DD0008093990381E080939C038EE393E090930A
:104DE0003D0380933C0380913B038111ADC060E3A0
:104DF00072E080E090E00E94D702DFB6F8940AE10A
:104E000012E0EEE2EE2EE2E0FE2E809139038111F7
:104E100025C0F8018491F7019491E82FF0E0EE0F9E
:104E2000FF1FEE50FE4FA591B4918C91982321F471
:104E300061E08AE00E94D60161E08AE00E940402FB
:104E40008CB580618CBD8CB580648CBD61E08DE0DB
:104E50000E94040261E08BE00E9404028091390309
:104E60008F5F80933903DFBEF8010491E02FF0E0FB
:104E7000EE0FFF1FE450FE4F8591949190933803FD
:104E800080933703F701E490E092360361E08AE013
:104E90000E9404020E94670680E591E00E9494014E
:104EA00084E38093CE0380E80E9433070E94250CA0
:104EB000882309F4FDC188E00E9433070E94120C88
:104EC000883009F0F5C180E10E9433070E94120C7E
:104ED000803109F0EDC180E00E9433070E94120C7E
:104EE000182F8111E5C141E050E0BE016F5F7F4F97
:104EF0008FE190E00E949D0A8981833009F0D8C13A
:104F000080E480933A0342E06EE170E0812F0E94DA
:104F10008F0742E06FE170E0812F0E948F071F5FD3
:104F2000143089F740E06EE170E0812F0E948F0716
:104F300040E06FE170E0812F0E948F071F5F183003
:104F400089F781E080933B0380E591E00E94940122
:104F500046E050E065E975E089E090E00E94830654
:104F60008AEA91E09A8389831B821C821D821E82B9
:104F700044E050E0BE016D5F7F4F8FE090E00E9403
:104F8000830600913C0310913D03D80192961D9237
:104F90001D921D921C929597F80116A217A210A6B9
:104FA00011A69A961D921D921D921C929D9780E6C5
:104FB0009AEEA0E0B0E086AB97ABA0AFB1AF80EACD
:104FC0009FE0A0E0B0E082AF93AFA4AFB5AFD8014F
:104FD000189686E0FD01282F11922A95E9F798018D
:104FE000225F3F4F94E1F90111929A95E9F7E5E9C3
:104FF000F5E001900D928A95E1F72C5C3F4F3BA7BD
:105000002AA7D9011C920E94BB2E2FEC37E040E06A
:1050100050E00E940933DC01CB010196A11DB11DB6
:10502000F80184839583A683B78380839183A283C9
:10503000B3835801F3E4AF0EB11CC5010E946D0BA0
:1050400064E470E0C5010E94D60E882309F499C17A
:105050000E940A032B013C0148EEC42E43E0D42EEB
:10506000E12CF12C52E0252E912C812CAAA5BBA578
:105070008C918330B9F181118EC1F80184819581C1
:10508000A681B7810196A11DB11D84839583A68356
:10509000B7830E940A036419750986099709A70155
:1050A00096010E947233A90161E0C8010E947E1638
:1050B00081E0AAA5BBA58C93F1E08F169104B1F213
:1050C0000E940A036419750986099709D801D696C2
:1050D0002D913D914D915C91D9972617370748073F
:1050E000590710F6C5010E946D0BF8018481958166
:1050F000A681B7810196A11DB11D84839583A683E6
:10510000B7830E940A03F801FE966083718382834D
:1051100093838A94892809F034C180E591E00E9444
:10512000940100913C0310913D03B801625F7F4FF1
:10513000CE0101960E947B1244E050E0BE016D5FFB
:105140007F4F8FE090E00E948306B8016A5E7F4F38
:10515000CE0101960E947B1244E050E0BE016D5FDB
:105160007F4F81E090E00E948306B8016E5E7F4F22
:10517000CE0101960E947B1244E050E0BE016D5FBB
:105180007F4F85E090E00E948306B801625E7F4F0A
:10519000CE0101960E947B128B819C81AD81BE81E4
:1051A0008093980490939904A0939A04B0939B04DD
:1051B0000E94B2027F7380910001909101016827E3
:1051C0007927709301016093000168EE73E080E03D
:1051D00090E00E94D7028AEA91E09A8389831B8239
:1051E0001C821D821E8280E591E00E94940144E0B1
:1051F00050E0BE016D5F7F4F8FE090E00E949D0AFE
:105200008EE492E090937F0580937E050E940A03CE
:10521000DC01CB0188589341A109B109809386052F
:1052200090938705A0938805B093890580938205A4
:1052300090938305A0938405B093850580938A0598
:1052400090938B05A0938C05B0938D05E0917C0520
:10525000F0917D058FE692E09187808780E590E070
:105260009387828780917C0590917D050E94C30879
:1052700010929405109293050E940A036B017C0121
:105280008091930590919405019709F44FC10E9474
:105290000A036C197D098E099F09603576448105E2
:1052A000910508F043C182E795E00E94D819E8CF44
:1052B00087E38093CE0380E80E9433070E94250C89
:1052C000882329F188E00E9433070E94120C88305D
:1052D000F1F480E10E9433070E94120C182F8031F4
:1052E000B1F480E00E9433070E94120C81110FC0BC
:1052F00041E050E0BE016F5F7F4F89E390E00E9484
:105300009D0A8981843019F410933A031ACE83E3FD
:105310008093CE0380E80E9433070E94250C8823E7
:1053200071F180E10E9433070E94120C803139F53F
:1053300082E10E9433070E94120C823101F580E065
:105340000E9433070E94120C811119C084E08093DF
:105350003A0315E519A741E050E0BE01675D7F4FB4
:105360008BE190E00E94830618A741E050E0BE0167
:10537000685D7F4F8AE190E00E948306E2CD109243
:10538000CE0360E177E280E090E00E94D702F0E097
:10539000E0E00995FFCF8430F9F4F801848195812C
:1053A000A681B7810196A11DB11D84839583A68333
:1053B000B7830E940A036419750986099709A70132
:1053C00096010E947233A90163E0C8010E947E1613
:1053D000AAA5BBA52C9270CE813059F5F80142AD3B
:1053E00053AD64AD75AD9E012F5F3F4FC8010E9464
:1053F0001418382EF2E08F1392C089819A81AB8104
:10540000BC81F80184839583A683B7830E940A0335
:105410006419750986099709A70196010E947233DC
:10542000A90163E0C8010E947E16AAA5BBA53C9213
:1054300043CE823009F040CEF80142AD53AD64ADA9
:1054400075AD9E012F5F3F4FC8010E941418382E82
:10545000F5E08F135DC0E3E0AAA5BBA5EC93F801CE
:1054600082A193A1A4A1B5A1892B8A2B8B2B41F4F6
:1054700024E833E040E050E022A333A344A355A343
:10548000F80186A197A1A0A5B1A5892B8A2B8B2B0A
:1054900061F482A193A1A4A1B5A1B695A795979512
:1054A000879586A397A3A0A7B1A7F80182A593A586
:1054B000A4A5B5A5892B8A2B8B2BA9F482A193A136
:1054C000A4A1B5A1AC01BD0123E0769567955795E0
:1054D00047952A95D1F7841B950BA60BB70B82A78E
:1054E00093A7A4A7B5A7F80186A197A1A0A5B1A5E8
:1054F00086A797A7A0ABB1AB82A593A5A4A5B5A598
:1055000082AB93ABA4ABB5AB88248394912CD4CD60
:10551000F6E08F1304C0AAA5BBA51C92CDCDBFEFAA
:105520003B12CACDEAA5FBA51082C6CD809193059A
:1055300090919405019709F095CE80917005909116
:10554000710597FF22C00E940A03E0ECF4E050E0EE
:1055500040E026E1249FD001259FB00D11248D014C
:1055600000541B4FD801322F1D923A95E9F7608302
:105570007183828393834F5F5F4F769648305105E6
:1055800049F7109271051092700580917005909105
:1055900071050897CCF5E0ECF4E090E080E0248120
:1055A0003581232B09F002C226813781232B09F094
:1055B000FDC126E1289F8001299F100D1124005470
:1055C0001B4F88EE93E0A0E0B0E0F801838794875A
:1055D000A587B68785EF90E2958384831286108A2B
:1055E000178681E0838B0E940A03D8016D937D9317
:1055F0008D939C93139780917005909171050196FE
:105600009093710580937005CC24CA94D12C2224E8
:105610002394312C8FE00E949D0296958795969554
:105620008795B601681B790B83E00E94400264E60F
:1056300070E080E090E00E94D7020E943D081BA22B
:105640001AA21DA21CA21FA21EA28E010F5F1F4F35
:1056500022E044E00E942C2D7C01009709F4B4C1A3
:10566000FC0101900020E9F731978F01081B190B0D
:10567000B801CE0182960E94B4172AA13BA18111E4
:105680009CC12115310519F0C9010E94E62D1BA20C
:105690001AA21FA21EA21DA21CA28091AE0490916C
:1056A000AF04009709F498C16AA17BA16115710547
:1056B00009F490C14091B0045091B1042EA13FA1D2
:1056C0004217530708F486C10E9485358EA19FA119
:1056D0009093B3048093B2041FA21EA28AA19BA13F
:1056E000009711F00E94E62D60E082E00E941F0901
:1056F0004091B2045091B3046091AE047091AF0434
:1057000084EB94E00E94690380E390E00E945604D9
:105710008FEC93E00E94C703892BD1F38FEC93E0C9
:105720000E94A503182F8093A4038FEC93E00E949E
:10573000C703892BD1F38FEC93E00E94A5031FA729
:105740001EA60EA51FA5082B1093A8030093A70360
:1057500061E082E00E941F09A80170E060E02AE099
:1057600084EB94E00E94630982E795E00E94D819D7
:105770000E940A032B013C0180ECE82E84E0F82E05
:105780008701F801158A148A84819581892B29F46F
:1057900086819781892B09F449C0D8012D913D91CB
:1057A0004D915C9113972AA73BA74CA75DA7C30116
:1057B000B201621B730B840B950B1B968D909D9011
:1057C000AD90BC901E97681579058A059B0570F110
:1057D00081149104A104B10409F415C1A501940137
:1057E0000E947233C501B4010E941A342AA53BA558
:1057F0004CA55DA5620F731F841F951FD8016D9383
:105800007D938D939C931397D80153968C915397C6
:10581000882361F01F962D913C91509721153105F9
:1058200009F0F7C055963C922E9254970A5E1F4F8E
:1058300035E00037130709F0A4CF10E000E0D701EE
:1058400054968D919C915597892BE9F11A968C91DC
:105850001A97882309F4F2C01696ED91FC911797D8
:1058600018968D919C910995F701848995890297E5
:1058700051F58091700590917105892B21F18481FA
:105880009581892B21F486819781892BE1F026E18E
:10589000209FF001219FF00D1124E054FB4FDF0108
:1058A0001D922A95E9F70E940A03F701608371832C
:1058B00082839383809170059091710501979093F5
:1058C0007105809370050F5F1F4FF6E1EF0EF11C1D
:1058D0000830110509F0B3CF0E943D0820E030E008
:1058E0004CE052E40E9415341816C4F48091A503CC
:1058F0008823A1F01092A50360E085E00E94D60104
:1059000070E060E082E090E00E94902060E088E03B
:105910000E941F098CED91E00E94060A8091A70366
:105920009091A803803D9740B8F48091A60381111F
:1059300013C00E94610881E08093A60361E070E0DB
:1059400083E090E00E94902061E087E00E941F09C0
:1059500080EC91E00E94060A8091A7039091A80331
:10596000883B9B40B1F48091A603882391F00E946C
:1059700059081092A60370E060E083E090E00E9476
:10598000902061E087E00E941F098AEC91E00E946C
:10599000060A40E050E0452B09F43CCE0E94D303B8
:1059A000882309F437CE0E94000034CE0196769603
:1059B0008830910509F0F3CD27CE1FA30EA3B701C0
:1059C000C9010E94853569CE8AA19BA1009709F083
:1059D0005CCE5DCE0E94E62D8AA19BA19093AF0480
:1059E0008093AE048CA19DA19093B1048093B004E8
:1059F0008EA19FA19093B3048093B2041BA21AA21C
:105A00001DA21CA269CEF80140825182628273827B
:105A1000FBCEF801818992898217930708F006CF9F
:105A2000358A248A0196928B818B8217930708F41A
:105A3000FDCE22E030E0358B248BF8CE1496ED912C
:105A4000FC91099511CF8091AE049091AF0400971D
:105A500011F00C94E62D0895EF920F931F93CF93BE
:105A6000DF93E80134E047FD34E1042E000C550BD0
:105A700057FF03C0519541955109E32E022F242F62
:105A8000AE010E94A32FCE01DF91CF911F910F9104
:105A9000EF9008950F931F93CF93DF93823091057A
:105AA00010F482E090E0E091BF05F091C00530E095
:105AB00020E0B0E0A0E0309799F42115310509F419
:105AC0004AC0281B390B24303105D8F58A819B81C7
:105AD0006115710589F1FB0193838283FE0111C079
